:100000000C9446000C9465000C9465000C946500FB
:100010000C9465000C9465000C9465000C946500CC
:100020000C9465000C9465000C9465000C946500BC
:100030000C9465000C94DE000C9465000C94650033
:100040000C9465000C9465000C9465000C9465009C
:100050000C9465000C9465000C9465000C9465008C
:100060000C9465000C9465000C9465000C9465007C
:100070000C9465000C9465000C9465000C9465006C
:100080000C9465000C9465000C94650011241FBE4F
:10009000CFEFD0E4DEBFCDBF11E0A0E0B1E0E4E6F9
:1000A000F5E000E00BBF02C007900D92A231B1074E
:1000B000D9F721E0A2E1B1E001C01D92A931B20758
:1000C000E1F70E9473020C94A9020C940000CF93F4
:1000D000DF9300D00F92CDB7DEB789837B836A832D
:1000E00089818A3031F48A819B81BC018DE00E9434
:1000F000670080EC90E0FC018081882F90E08072A6
:100100009927892BB1F386EC90E02981FC012083AB
:1001100080E090E00F900F900F90DF91CF910895C5
:10012000CF93DF93CDB7DEB781E890E02BE0FC0101
:10013000208388E890E02DE730E0FC0131832083C4
:100140008FE690E022E0FC01208384E890E0FC014F
:100150001182108280910E0190910F01A0911001E7
:10016000B09111018093130190931401A093150194
:10017000B09316018FE590E0FC0120818FE590E0BF
:100180002068FC0120830000DF91CF910895CF9378
:10019000DF93CDB7DEB781E890E0FC01108200006C
:1001A000DF91CF910895CF93DF93CDB7DEB781E094
:1001B000809312010000DF91CF9108951F920F925A
:1001C0000FB60F9211240BB60F922F933F934F93BC
:1001D0005F936F937F938F939F93AF93BF93EF93AF
:1001E000FF93CF93DF93CDB7DEB78091130190914A
:1001F0001401A0911501B09116010197A109B1094F
:100200008093130190931401A0931501B0931601EC
:100210008091130190911401A0911501B0911601E4
:10022000892B8A2B8B2B91F40E94D30080910E0195
:1002300090910F01A0911001B091110180931301D1
:1002400090931401A0931501B09316010000DF9163
:10025000CF91FF91EF91BF91AF919F918F917F913E
:100260006F915F914F913F912F910F900BBE0F9027
:100270000FBE0F901F901895CF93DF9300D000D042
:10028000CDB7DEB769837A838B839C8389819A811A
:10029000AB81BC8180930E0190930F01A09310015C
:1002A000B093110180910E0190910F01A091100166
:1002B000B09111018093130190931401A093150143
:1002C000B093160100000F900F900F900F90DF91E8
:1002D000CF910895CF93DF93CDB7DEB7809117010B
:1002E00090911801CC01A0E0B0E087309105A10504
:1002F000B10508F0A9C085559D4FFC010C94A002E2
:1003000080E290E0FC018081882F90E08170992745
:10031000892B29F410921801109217019AC081E0DC
:1003200090E0909318018093170193C080E290E0D1
:10033000FC018081882F90E081709927892B39F406
:1003400085E090E0909318018093170182C082E0CD
:1003500090E090931801809317017BC080E290E0B9
:10036000FC018081882F90E081709927892B39F4D6
:1003700085E090E090931801809317016AC083E0B4
:1003800090E0909318018093170163C080E290E0A1
:10039000FC018081882F90E081709927892B39F4A6
:1003A00085E090E0909318018093170152C084E09B
:1003B00090E090931801809317014BC080E290E089
:1003C000FC018081882F90E081709927892B39F476
:1003D00085E090E090931801809317013AC081E086
:1003E00090E0909318018093170133C080E290E071
:1003F000FC018081882F90E081709927892B39F446
:1004000085E090E0909318018093170122C086E068
:1004100090E090931801809317011BC080E290E058
:10042000FC018081882F90E081709927892B29F425
:1004300010921801109217010CC086E090E0909382
:1004400018018093170105C010921801109217012E
:100450000000809117019091180187309105C0F537
:1004600085309105D8F58430910561F1853091058D
:1004700078F58330910501F18430910548F582309B
:100480009105A1F08330910518F5009719F00197B7
:1004900039F01EC088E290E021E0FC0120831FC0FB
:1004A00088E290E021E0FC01208319C088E290E01E
:1004B00022E0FC01208313C088E290E024E0FC01EC
:1004C00020830DC088E290E022E0FC01208307C079
:1004D00088E290E021E0FC01208301C000000000E0
:1004E000DF91CF910895CF93DF93CDB7DEB781E24F
:1004F00090E0FC01108282E290E02FEFFC0120836B
:1005000087E290E02FEFFC01208388E290E0FC017D
:1005100010826CE271E080E090E00E943C010E9459
:10052000900085E290E021E0FC01208300008091B2
:1005300012018823E1F3109212010E946A01F6CFA2
:10054000EE0FFF1F0024001C0BBE0790F691E02D5C
:100550000994F894FFCF80019601AE01C601DE0137
:04056000F6010E0290
:10056400000000020000000067000000000001001D
:02057400000085
:00000001FF
